:040000000DEF00F010
:040008009AEF8FF0EC
:06001800FF0044EF87F039
:10FE52000048290100000096130100000000000084
:10FE620000000000000094240100000000000000D7
:10FE72000000000000000000000000000000000080
:10FE8200000000000000000000000000000240002E
:10FE92004F00024000000044697361626C656400B7
:10FEA20000382062697473000000003136206269F4
:10FEB20074730000005354415455530909203D20E6
:10FEC2003078253032782052585F44523D257820D0
:10FED20054585F44533D2578204D41585F52543D5C
:10FEE20025782052585F505F4E4F3D257820545858
:10FEF2005F46554C4C3D25780D0A003D3D3D3D3D4C
:10FF02003D3D3D3D3D3D3D3D3D3D3D204E5246202A
:10FF1200436F6E66696775726174696F6E203D3DED
:10FF22003D3D3D3D3D3D3D3D3D3D3D3D3D3D0A006F
:10FF320052657472616E736D697409203D20256487
:10FF42002075730A00435243204C656E677468093A
:10FF5200203D2025730A004461746120526174655A
:10FF620009203D2025730A00504120506F776572A9
:10FF720009203D2025730A0044594E50442F46451E
:10FF820041545552450052585F414444525F5030EB
:10FF92002D310052585F414444525F50322D35009A
:10FFA20052585F50575F50302D3600454E5F5258C1
:10FFB200414444520054585F41444452090052465D
:10FFC2005F534554555000434F4E46494709002060
:10FFD20030782530327800286E756C6C2900454ED9
:10FFE2005F4141090052465F4348090025730920D9
:0DFFF2003D0047414D4534002030780000AF
:020000040001F9
:1000000088C5D9F489C5DAF4DEC4F6F4DDC4F7F4A2
:10001000000EF86E0800F550250AD8A412EF80F003
:1000200014EF80F0B1EF81F088C5D9F489C5DAF416
:10003000DE2A000EDD22000E0501E76F000EE66FDE
:10004000E6C5EAF5E869E969926B47EF80F0EA8373
:1000500088C5D9F489C5DAF4DE2A000EDD2247EF1F
:1000600080F0010E926F47EF80F088C5D9F489C502
:10007000DAF4DEC4F6F4DDC4F7F4000EF86E08001E
:10008000F550300AD8B427EF80F031EF80F092516C
:10009000D8B44DEF80F04FEF80F035EF80F088C599
:1000A00060F589C561F58AC562F58BC563F535ECE8
:1000B0008AF060C5E6F561C5E7F50501E7BF65EFC4
:1000C00080F063EF80F06AEF80F0EA81E66DE71F71
:1000D000D8B0E72B88C5D9F489C5DAF4DEC493F526
:1000E000DDC494F593C5F6F494C5F7F4000EF86EEC
:1000F0000800F550640AD8B480EF80F082EF80F0F9
:1001000092EF80F093C5F6F494C5F7F4000EF86E04
:100110000800F550690AD8A490EF80F092EF80F0C3
:10012000C0EF80F08AC5D9F48BC5DAF4DFC48CF552
:10013000020EDE26DFC48DF5000EDD228CC5D9F45B
:100140008DC5DAF4DEC48EF5DDC48FF5010E93257E
:100150008C6F000E94218D6F88C5D9F489C5DAF4AF
:100160008CC5DEF48DC5DDF486C579F587C57AF5D5
:100170008EC57BF58FC57CF537EC85F0C8EF81F037
:1001800093C5F6F494C5F7F4000EF86E0800F55028
:10019000780AD8A4CEEF80F0D0EF80F00EEF81F097
:1001A0008AC5D9F48BC5DAF4DFC48CF5020EDE26DD
:1001B000DFC48DF5000EDD228CC5D9F48DC5DAF4CF
:1001C000DEC48EF5DDC48FF5010E93258C6F000E15
:1001D00094218D6F88C5D9F489C5DAF48CC5DEF415
:1001E0008DC5DDF400EF81F086C579F587C57AF518
:1001F0008EC57BF58FC57CF5CCEC87F0C8EF81F020
:1002000093C5F6F494C5F7F4000EF86E0800F550A7
:10021000780AD8B4F4EF80F00EEF81F0926B88C5C5
:10022000D9F489C5DAF4DEC4F6F4DDC4F7F4000EBF
:10023000F86E0800F550730AD8A421EF81F023EF7F
:1002400081F02EEF81F088C5D9F489C5DAF4DE2A71
:10025000000EDD22010E926F84EF81F088C5D9F483
:1002600089C5DAF4DEC4F6F4DDC4F7F4000EF86EE6
:100270000800F5506C0AD8A440EF81F042EF81F0FD
:1002800084EF81F088C5D9F489C5DAF4DEC48CF531
:10029000DDC48DF5010E8C27000E8D238CC5F6F480
:1002A0008DC5F7F4000EF86E0800F5506C0AD8A45E
:1002B0005CEF81F05EEF81F084EF81F088C5D9F4C6
:1002C00089C5DAF4DEC48CF5DDC48DF5020E8C2709
:1002D000000E8D238CC5F6F48DC5F7F4000EF86E74
:1002E0000800F550730AD8A478EF81F07AEF81F016
:1002F00084EF81F0030E88C5D9F489C5DAF4DE26CF
:10030000000EDD222AEF81F09251D8B48AEF81F0FD
:100310008CEF81F0A8EF81F086C569F587C56AF595
:100320008AC5D9F48BC5DAF4DFC48CF5020EDE265B
:10033000DFC48DF5000EDD228CC5D9F48DC5DAF44D
:10034000DEC46BF5DDC46CF5F5EC85F0C8EF81F02B
:1003500088C5D9F489C5DAF4DE2A000EDD22C8EF9B
:1003600081F088C5D9F489C5DAF4DEC4F6F4DDC4B9
:10037000F7F4000EF86E0800F5500501606F616B30
:1003800086C562F587C563F59CEC8AF0A8EF81F01D
:1003900012000501606F050160AFD1EF81F0D3EF6E
:1003A00081F0E3EF81F0C384000000000000C3840B
:1003B0000000000000000000C394000000000000E6
:1003C0000000F1EF81F0C384000000000000C3943E
:1003D0000000000000000000C394000000000000C6
:1003E0000000050160ADF7EF81F0F9EF81F009EF52
:1003F00082F0C384000000000000C38400000000FD
:1004000000000000C394000000000000000017EF8F
:1004100082F0C384000000000000C39400000000CC
:1004200000000000C394000000000000000005016F
:1004300060AB1DEF82F01FEF82F02FEF82F0C384DC
:10044000000000000000C384000000000000000065
:10045000C39400000000000000003DEF82F0C38460
:10046000000000000000C394000000000000000035
:10047000C3940000000000000000050160A943EFE4
:1004800082F045EF82F055EF82F0C3840000000057
:100490000000C3840000000000000000C3940000BE
:1004A00000000000000063EF82F0C3840000000041
:1004B0000000C3940000000000000000C39400008E
:1004C000000000000000050160A769EF82F06BEFFB
:1004D00082F07BEF82F0C384000000000000C38440
:1004E0000000000000000000C394000000000000B5
:1004F000000089EF82F0C384000000000000C39474
:100500000000000000000000C39400000000000094
:100510000000050160A58FEF82F091EF82F0A1EF5E
:1005200082F0C384000000000000C38400000000CB
:1005300000000000C3940000000000000000AFEFC6
:1005400082F0C384000000000000C394000000009B
:1005500000000000C394000000000000000005013E
:1005600060A3B5EF82F0B7EF82F0C7EF82F0C384EB
:10057000000000000000C384000000000000000034
:10058000C3940000000000000000D5EF82F0C38497
:10059000000000000000C394000000000000000004
:1005A000C3940000000000000000050160A1DBEF23
:1005B00082F0DDEF82F0EDEF82F0C38400000000F6
:1005C0000000C3840000000000000000C39400008D
:1005D000000000000000FBEF82F0C3840000000078
:1005E0000000C3940000000000000000C39400005D
:1005F0000000000000001200016E01AE02EF83F067
:1006000004EF83F014EF83F0C384000000000000C7
:10061000C3840000000000000000C394000000003C
:100620000000000022EF83F0C384000000000000FF
:10063000C3940000000000000000C394000000000C
:100640000000000001AC27EF83F029EF83F039EFC1
:1006500083F0C384000000000000C3840000000099
:1006600000000000C394000000000000000047EFFD
:1006700083F0C384000000000000C3940000000069
:1006800000000000C394000000000000000001AA68
:100690004CEF83F04EEF83F05EEF83F0C3840000F5
:1006A00000000000C3840000000000000000C394AC
:1006B00000000000000000006CEF83F0C384000025
:1006C00000000000C3940000000000000000C3947C
:1006D000000000000000000001A871EF83F073EF3C
:1006E00083F083EF83F0C384000000000000C38424
:1006F0000000000000000000C394000000000000A3
:10070000000091EF83F0C384000000000000C39458
:100710000000000000000000C39400000000000082
:10072000000001A696EF83F098EF83F0A8EF83F026
:10073000C384000000000000C3840000000000002B
:100740000000C3940000000000000000B6EF83F03A
:10075000C384000000000000C394000000000000FB
:100760000000C394000000000000000001A4BBEFE3
:1007700083F0BDEF83F0CDEF83F0C3840000000071
:100780000000C3840000000000000000C3940000CB
:10079000000000000000DBEF83F0C38400000000D5
:1007A0000000C3940000000000000000C39400009B
:1007B00000000000000001A2E0EF83F0E2EF83F010
:1007C000F2EF83F0C384000000000000C384000047
:1007D000000000000000C3940000000000000000C2
:1007E00000EF84F0C384000000000000C394000008
:1007F000000000000000C3940000000000000000A2
:1008000001A005EF84F007EF84F017EF84F0C384B4
:10081000000000000000C384000000000000000091
:10082000C394000000000000000025EF84F0C384A2
:10083000000000000000C394000000000000000061
:10084000C39400000000000000001200FD0E05012E
:100850009D6FFE0E9E6FCCEC93F0BBC56AF5BCC5D8
:100860006BF58BEC94F0E1EC8FF0BBC5ADF5BCC53E
:10087000AEF5880E0501AF6FFF0EB06F0A0EB16FB7
:10088000020EB26F02EC8EF0BBC5ADF5BCC5AEF585
:10089000950E0501AF6FFF0EB06F0C0EB16F040E19
:1008A000B26F44EC91F0BBC5ADF5BCC5AEF5B70E6B
:1008B0000501AF6FFF0EB06F100EB16F010EB26F7A
:1008C00002EC8EF0BBC5ADF5BCC5AEF5A20E0501C0
:1008D000AF6FFF0EB06F110EB16F060EB26F44EC2A
:1008E00091F0BBC5ADF5BCC5AEF5E00E0501AF6F2F
:1008F000FF0EB06F010EB16F010EB26F44EC91F0BC
:10090000BBC5ADF5BCC5AEF5AD0E0501AF6FFF0EB5
:10091000B06F020EB16F010EB26F44EC91F0BBC527
:10092000ADF5BCC5AEF5E70E0501AF6FFF0EB06FBC
:10093000050EB16F010EB26F44EC91F0BBC5ADF581
:10094000BCC5AEF5C00E0501AF6FFF0EB06F060E51
:10095000B16F010EB26F44EC91F0BBC5ADF5BCC5F3
:10096000AEF5C90E0501AF6FFF0EB06F000EB16F8F
:10097000010EB26F44EC91F0BBC5ADF5BCC5AEF550
:100980007A0E0501AF6FFF0EB06F1C0EB16F020E35
:10099000B26F44EC91F0590E05019D6FFF0E9E6FF2
:1009A000BBC56AF5BCC56BF5FBEC91F00501BD6FED
:1009B000BD51080D370EF3249F6F050EF420A06F74
:1009C000CCEC93F0470E05019D6FFF0E9E6FBBC5EB
:1009D0006AF5BCC56BF5D6EC90F00501BD6FBD5155
:1009E0000A0D990EF3249F6FFE0EF420A06FCCEC3D
:1009F00093F06A0E05019D6FFF0E9E6FBBC56AF5F1
:100A0000BCC56BF52EEC94F00501BD6FBD51080D12
:100A1000C80EF3249F6F090EF420A06FCCEC93F066
:100A2000BBC56AF5BCC56BF57DEC94F00501C36FE1
:100A3000C351BD6FBE6B010EBD27000EBE23FA0E63
:100A4000BD03F3C4BFF5F4C4C0F5BE03F350C02723
:100A5000BFC5C1F5C0C5C2F5320E9D6FFF0E9E6FBA
:100A6000C1C59FF5C2C5A0F5CCEC93F01200010EF4
:100A700005017F6F7CBF3FEF85F042EF85F0010EEF
:100A800043EF85F0000E826FE6C580F5E7C581F57E
:100A90008251D8B44EEF85F050EF85F067EF85F0C6
:100AA0008007D8A081078251D8A459EF85F05BEF69
:100AB00085F061EF85F0000E7E6F2B0E7D6F65EF88
:100AC00085F0000E7E6F2D0E7D6F7DC582F5000EC8
:100AD000846F1F0E836F0701E76B9EEF85F083071E
:100AE000D8A08407C80E8325D96E070E8421DA6E3C
:100AF0007BC560F57CC561F5000E636F0A0E626F01
:100B0000AAEC8DF060C566F561C567F59EEC92F0C4
:100B100005016651300FDF6E7F6B8007D8A081071B
:100B20007BC560F57CC561F5000E636F0A0E626FD0
:100B300091EC8CF060C57BF561C57CF5050184BF47
:100B4000AAEF85F0845108E18305D8A0AAEF85F0CB
:100B5000ACEF85F0D1EF85F07B517C11D8A4B3EFD9
:100B600085F0B5EF85F06FEF85F07F51D8A4BBEF2E
:100B700085F0BDEF85F06FEF85F081BFC8EF85F0A0
:100B8000815108E18005D8A0C8EF85F0CAEF85F053
:100B9000D1EF85F0EAB3CFEF85F0D1EF85F06FEFBD
:100BA00085F08251D8B4D7EF85F0D9EF85F0E4EF26
:100BB00085F08307D8A08407C80E8325D96E070E59
:100BC0008421DA6E82C5DFF479C570F57AC571F5D6
:100BD000C80E8325726F070E8421736F80C574F56C
:100BE00081C575F558EC8EF012006BC573F56CC5B8
:100BF00074F5050173517411D8A401EF86F003EF69
:100C000086F007EF86F0D90E736FFF0E746F000E3B
:100C1000766F000E756F10EF86F00501754B762B21
:100C2000755173256D6F765174216E6F6DC5F6F435
:100C30006EC5F7F4000EF86E250EF76403D00800B9
:100C4000F55005D0F6C4E9F4F7C4EAF4EF50000912
:100C5000D8A42DEF86F02FEF86F00DEF86F075C546
:100C60006FF576C570F5E6C571F5E7C572F5050156
:100C7000EAB13DEF86F03FEF86F07EEF86F04EEF73
:100C800086F0000E616F200E606F69C562F56AC55F
:100C900063F59CEC8AF00501754B762B7151755DFF
:100CA0007651800A6D6F7251800A6D59D8A05BEF42
:100CB00086F05DEF86F041EF86F07EEF86F073C53B
:100CC000F6F474C5F7F4000EF86E250EF76403D041
:100CD0000800F55005D0F6C4E9F4F7C4EAF4EF5083
:100CE00005016D6F6D51606F616B69C562F56AC515
:100CF00063F59CEC8AF00501734B742B6F07D8A049
:100D000070076F2906E17029D8A489EF86F08BEF70
:100D100086F05FEF86F0EAA190EF86F092EF86F022
:100D2000B0EF86F0A1EF86F0000E616F200E606FCD
:100D300069C562F56AC563F59CEC8AF00501754BDF
:100D4000762B7151755D7651800A6D6F7251800AF4
:100D50006D59D8A0AEEF86F0B0EF86F094EF86F034
:100D60001200000E0501616F640E606F09EC93F0D4
:100D7000EB0E0501616F050E626F9FEC93F0EB0EB9
:100D800005016D6F050E6E6F630E6F6F200E706F35
:100D900023EC90F0EB0E05016A6F050E6B6FF40EFD
:100DA0006C6FFF0E6D6FAAEC8EF06AC5E4F56BC533
:100DB000E5F50501E451E511D8B4E1EF86F0E3EF84
:100DC00086F0ECEF86F0000E0501616F010E606F9A
:100DD00009EC93F0E3EF86F0EB0E6A6F050E6B6F94
:100DE000F40E6C6FFF0E6D6F50EC8DF06AC5E4F57C
:100DF0006BC5E5F50501E451E511D8B402EF87F0C4
:100E000004EF87F00DEF87F0000E0501616F010E12
:100E1000606F09EC93F004EF87F0EB0E6A6F050E3C
:100E20006B6F000E6C6F9DEC90F0EB0E05016A6F1E
:100E3000050E6B6F640E6C6F6FEC93F0EB0E05019B
:100E4000BB6F050EBC6F26EC84F0EB0E05016D6FD9
:100E5000050E6E6FE0EC93F00009D8A432EF87F036
:100E600034EF87F036EF87F043EF87F0EB0E0501A4
:100E7000666F050E676FC40E686F050E696FB9EC7B
:100E800092F025EF87F01200940EF66E170EF76EB3
:100E9000010EF86E03EE00F110EEC8F00900F5C483
:100EA000EEF4E550E150FAE1CC0EF66E160EF76E58
:100EB000010EF86E03EE00F010EEC8F00900F5C464
:100EC000EEF4E550E150FAE1040EF66E160EF76E00
:100ED000010EF86E02EE00F310EEC8F00900F5C442
:100EE000EEF4E550E150FAE19E0EF66E280EF76E34
:100EF000010EF86E02EEC8F110EE20F00900F5C404
:100F0000EEF4E550E150FAE17E0EF66E280EF76E33
:100F1000010EF86E02EEC8F010EE20F00900F5C4E4
:100F2000EEF4E550E150FAE1300EF66E290EF76E60
:100F3000010EF86E01EE37F110EE18F00900F5C45D
:100F4000EEF4E550E150FAE103EE00F2C80EEE6A6D
:100F5000E806FDE102EE00F2C80EEE6AE806FDE1E9
:100F600001EEC8F3200EEE6AE806FDE101EEE6F1BF
:100F7000080EEE6AE806FDE101EE4FF10B0EEE6A97
:100F8000E806FDE10401080E5D6F000E5E6F000EC5
:100F90005F6F000151EF89F0010E0501806FE6C51A
:100FA00081F5E7C582F5000E856F1F0E846F07017E
:100FB000E76B0BEF88F08407D8A085077B510F0BF8
:100FC000836F0A0E8361E7EF87F0E9EF87F0EDEFBB
:100FD00087F0300E8327EFEF87F0570E8327C80E78
:100FE0008425D96E070E8521DA6E83C5DFF4806B08
:100FF0008107D8A082077BC57DF57CC57EF5040EF0
:101000007F6FD8907E337D337F2F01EF88F07DC5D1
:101010007BF57EC57CF5050185BF18EF88F085510D
:1010200009E1020E845DD8A018EF88F01AEF88F06D
:101030003FEF88F07B517C11D8A421EF88F023EF9B
:1010400088F0DBEF87F08051D8A429EF88F02BEFF0
:1010500088F0DBEF87F082BF36EF88F0825108E13D
:101060008105D8A036EF88F038EF88F03FEF88F0A0
:10107000EAB33DEF88F03FEF88F0DBEF87F079C50A
:1010800070F57AC571F5C80E8425726F070E85213B
:10109000736F81C574F582C575F558EC8EF012003A
:1010A000000E0501716F0A0E706F65C5D9F466C533
:1010B000DAF4DF5064EC90F0000E05016F6F000E63
:1010C0006E6FBBEF88F0000E6D6F000E6C6FAAEFB5
:1010D00088F070516E03F3C467F5F4C468F56F03CC
:1010E000F350682771516E03F35068276C516727DE
:1010F0006D516823010E67256A6F000E68216B6FC2
:101100006EA185EF88F087EF88F09EEF88F0705130
:101110006E03F3C467F5F4C468F56F03F3506827F2
:1011200071516E03F35068276C51675F6D51685BB6
:10113000705167256A6F715168216B6F6A5165251F
:10114000D96E6B516621DA6EDF5064EC90F00501C8
:101150006C4B6D2B70516C5D6D51800A676F7151D6
:10116000800A6759D8A0B7EF88F0B9EF88F069EF27
:1011700088F06E4B6F2B70C567F571C568F5D89018
:101180006737683767516E5D6F51800A696F6851C4
:10119000800A6959D8A0CFEF88F0D1EF88F063EFCB
:1011A00088F01200000E126E0A0E116E06C5D9F4F8
:1011B00007C5DAF4DF500DEC91F0000E106E000E52
:1011C0000F6E3AEF89F0000E0E6E000E0D6E29EFD5
:1011D00089F011500F02F3C408F5F4C409F51002A8
:1011E000F350092612500F02F35009260D5008261D
:1011F0000E500922010E08240B6E000E09200C6E01
:101200000FA005EF89F007EF89F01EEF89F011506C
:101210000F02F3C408F5F4C409F51002F3500926CF
:1012200012500F02F35009260D50085E0E50095A55
:10123000115008240B6E125009200C6E0B5006241E
:10124000D96E0C500720DA6EDF500DEC91F00D4A8C
:101250000E2A11500D5C0E50800A086E1250800A42
:101260000858D8A036EF89F038EF89F0E9EF88F018
:101270000F4A102A11C508F512C509F5D89008368D
:10128000093608500F5C1050800A0A6E0950800A17
:101290000A58D8A04EEF89F050EF89F0E3EF88F0BC
:1012A0001200DCEC94F021EE00F2C70EDE6AE806D4
:1012B000FDE222EE00F311EE00F3C70EDEC4E6F409
:1012C000E806FCE2C80ED95EE15E23EE00F012EE05
:1012D00000F0C70EDEC4E6F4E806FCE2C80ED95EF4
:1012E000E15E23EE00F112EE00F1C70EDEC4E6F47B
:1012F000E806FCE2C80ED95EE15E000E0501656FEE
:10130000080E666F50EC88F0D68E0401168D9E8E06
:101310005C0E0501606F180E616F010E626FF3ECD9
:1013200094F0B1EC86F0130E0501616F880E606FCA
:1013300009EC93F0000E0501656F090E666F50EC25
:1013400088F022EEC8F011EEC8F21F0EDBC4E3F401
:10135000E806FCE2EB0E05016D6F050E6E6FC80E20
:101360006F6F060E706F4AEC8FF0EB0E05016D6F1C
:10137000050E6E6F030E706FE80E6F6FF3EC8CF05E
:10138000010E0501616FF40E606F09EC93F0AAEF96
:1013900089F00DEF00F00501606F000184BFD3EF0D
:1013A00089F0D5EF89F034EF8AF005016051050D21
:1013B0008F0EF324F66EFE0EF420F76EF86A000E20
:1013C000F8220800F5C484F06051050D010EF326E3
:1013D000000EF4228F0EF324F66EFE0EF420F76E4C
:1013E000F86A000EF8220800F5C485F06051050D7A
:1013F000020EF326000EF4228F0EF324F66EFE0E7C
:10140000F420F76EF86A000EF8220800F550FC0B85
:101410000001866F05016051050D030EF326000ED5
:10142000F4228F0EF324F66EFE0EF420F76EF86AA7
:10143000000EF8220800F5C489F06051050D040E75
:10144000F326000EF4228F0EF324F66EFE0EF42027
:10145000F76EF86A000EF8220800F5C48CF0C89602
:101460000001848F34EF8AF01200000E0501686FCE
:10147000000E676F60C5D9F461C5DAF4DEC4F6F416
:10148000DDC4F7F4000EF86E0800F5502A0AD8A45F
:101490004CEF8AF04EEF8AF081EF8AF060C5D9F404
:1014A00061C5DAF4DE2A000EDD2262C5D9F463C517
:1014B000DAF4DFC464F5020EDE26DFC465F5000E43
:1014C000DD2264C5D9F465C5DAF4DEC467F5DDC490
:1014D00068F597EF8AF00A0E6703F3C464F5F4C465
:1014E00065F56803F350652766516425676F000E44
:1014F0006521686F60C5D9F461C5DAF4DE2A000E93
:10150000DD2260C5D9F461C5DAF4DEC4F6F4DDC4C9
:10151000F7F4000EF86E0800F550D00F666F090E54
:10152000666595EF8AF097EF8AF06BEF8AF067C5F2
:1015300060F568C561F51200050162516311D8B408
:10154000A4EF8AF0A6EF8AF0AFEF8AF06251631140
:10155000D8A4ADEF8AF0AFEF8AF0B4EF8AF0605113
:1015600000EC95F001EF8BF020EE09F06251D926E6
:101570006351DA22DE50DE10D8B4C1EF8AF0C3EF37
:101580008AF0DEEF8AF020EE09F06251D92663512D
:10159000DA2210EE02F06251E1266351E222DE50BF
:1015A000E65CE650800A686FDE50800A6859D8B061
:1015B000DCEF8AF0DEEF8AF001EF8BF020EE02F034
:1015C0006251D9266351DA22DEC464F5DDC465F5C3
:1015D00062C5D9F463C5DAF4DEC466F5DDC467F527
:1015E00064516625D96E65516721DA6E60C5DFF4F6
:1015F00020EE02F06251D9266351DA22DE2A000E73
:10160000DD221200010101010101010101010101BD
:1016100001010101010101010101010101010101BA
:1016200001010101010101010101010101010101AA
:10163000010101010101010101010101010101019A
:10164000010101010101010101010101010101018A
:10165000010101010101010101010101010101017A
:10166000010101010101010101010101010101016A
:10167000010101010101010101010101010101015A
:10168000010101010101010101010101010101014A
:10169000010101010101010101010101010101013A
:1016A000010101010101010101010101010101012A
:1016B000010101010101010101010101010101011A
:1016C0000101010101010101010101010202020206
:1016D00002020202020202020202020202020202EA
:1016E00002020202020202020202020202020202DA
:1016F00002020202020202020202020202020202CA
:1017000002020202020202020202020202020202B9
:1017100002020202020202020202020202020202A9
:101720000202020202020202020202020202020299
:101730000202020202020202020202020202020289
:101740000202020202020202020202020202020279
:101750000202020202020202020202020202020269
:101760000202020202020202020202020202020259
:101770000202020202020202020202020202020249
:101780000202020202020202020202020202020239
:10179000020202020303030303030303030303031D
:1017A0000303030303030303030303030303030309
:1017B00003030303030303030303030303030303F9
:1017C00003030303030303030303030303030303E9
:1017D00003030303030303030303030303030303D9
:1017E00003030303030303030303030303030303C9
:1017F00003030303030303030303030303030303B9
:1018000003030303030303030303030303030303A8
:101810000303030303030303030303030303030398
:101820000303030303030303030303030303030388
:101830000303030303030303030303030303030378
:101840000303030303030303030303030303030368
:10185000030303030303030303030303EB0E0E6EEF
:10186000050E0F6E1BEC94F00009D8B43AEF8CF023
:101870003CEF8CF090EF8CF0EB0E076E050E086ECF
:10188000130E096E050E0A6E3DEC93F0000E346ED9
:10189000000E336E59BE58EF8CF0595007E1C80E58
:1018A000585CD8B056EF8CF058EF8CF068EF8CF0A5
:1018B000130E3324D96E050E3420DA6E000E582430
:1018C000E16E0A0E5920E26EDFC4E7F4584A592A45
:1018D000334A342A34BE76EF8CF0345009E1200EBE
:1018E000335CD8A076EF8CF078EF8CF04AEF8CF078
:1018F00059BE84EF8CF0595009E1C80E585CD8A04D
:1019000084EF8CF086EF8CF090EF8CF0000E596E27
:10191000000E586E000E066E0A0E076ED2EC88F0AE
:1019200012000501656B63BF9AEF8CF098EF8CF0A5
:10193000A0EF8CF0626D631FD8B0632B010E656F52
:1019400061BFA7EF8CF0A5EF8CF0ADEF8CF0606D70
:10195000611FD8B0612B010E651B000E676F000E72
:10196000666F62516311D8B4B8EF8CF0BAEF8CF0A7
:10197000E2EF8CF0010E646FC2EF8CF0D89062370A
:101980006337642B63AFC7EF8CF0C9EF8CF0BEEF09
:101990008CF0D890663767376251605D635161594A
:1019A000D8A0D5EF8CF0D7EF8CF0DCEF8CF0625143
:1019B000605F6351615B6681D89063336233642FEB
:1019C000C9EF8CF06551D8B4E8EF8CF0EAEF8CF0F9
:1019D000EEEF8CF0666D671FD8B0672B66C560F5BB
:1019E00067C561F512006DC5D9F46EC5DAF4DF5034
:1019F000D8B4FDEF8CF0FFEF8CF04FEF8DF0000EC0
:101A00000501756F000E766F000E776F000E786F10
:101A100037EF8DF06DC56AF56EC56BF58BEC94F004
:101A20000501796F79AB17EF8DF019EF8DF021EF8C
:101A30008DF06DC564F56EC565F5F4EC93F04FEF70
:101A40008DF079A926EF8DF028EF8DF02AEF8DF03B
:101A500019EF8DF0000E616F010E606F09EC93F0CD
:101A6000010E05017527000E7623772378236FC5B5
:101A700071F570C572F5000E72BFFF0E736F746F53
:101A80007151755D72517659735177597451785906
:101A9000D8A04DEF8DF04FEF8DF00AEF8DF01200D2
:101AA000000E0501776F000E766F6CC566F56DC58B
:101AB00067F5050E686F0A0E83EC92F06CC566F54B
:101AC0006DC567F5050E0501686F100E83EC92F089
:101AD000710E0501666F050E676F050E686F0A0EC1
:101AE000EFEC92F0000E0501796F000E786F710E29
:101AF0007825D96E050E7921DA6E78516C256F6FD5
:101B000079516D21706F6FC5F6F470C5F7F4000E52
:101B1000F86EDE500900F518D8B491EF8DF093EF10
:101B20008DF095EF8DF076697769784B792B79BFD9
:101B3000A3EF8DF0795109E1050E785DD8A0A3EFF0
:101B40008DF0A5EF8DF077EF8DF076C56AF577C54E
:101B50006BF512000501656B61BFB3EF8DF0B1EF5E
:101B60008DF0B9EF8DF0606D611FD8B0612B010E63
:101B7000656F63BFC0EF8DF0BEEF8DF0C4EF8DF0E9
:101B8000626D631FD8B0632B62516311D8B4CBEF81
:101B90008DF0CDEF8DF0F1EF8DF0010E646FD5EF8C
:101BA0008DF0D89062376337642B63AFDAEF8DF036
:101BB000DCEF8DF0D1EF8DF06251605D63516159C2
:101BC000D8A0E5EF8DF0E7EF8DF0EBEF8DF06251EF
:101BD000605F6351615BD89063336233642FDCEFE5
:101BE0008DF06551D8B4F7EF8DF0F9EF8DF0FDEF82
:101BF0008DF0606D611FD8B0612B60C560F561C567
:101C000061F51200EE0E05019D6FFF0E9E6FAFC5D0
:101C10009FF5B0C5A0F5CCEC93F047EF8EF0B40E75
:101C2000666F050E676F050E686FB151EFEC92F0AD
:101C30000501B12BFA0E9D6FFF0E9E6FCCEC93F059
:101C4000000E0501BA6F000EB96FD40E9D6FFF0E26
:101C50009E6FB40EB925D96E050EBA21DA6EDF502B
:101C6000B36FB3519F6FA06BCCEC93F00501B94BF0
:101C7000BA2BBABF45EF8EF0BA5109E1050EB95D36
:101C8000D8A045EF8EF047EF8EF025EF8EF00501DE
:101C9000B207B229D8A44FEF8EF051EF8EF00FEFBC
:101CA0008EF0FA0E9D6FFE0E9E6FCCEC93F012003C
:101CB0000501EAA15EEF8EF060EF8EF06AEF8EF024
:101CC00072C569F573C56AF570C56BF571C56CF5BC
:101CD00026EC92F0050175BF72EF8EF070EF8EF07A
:101CE00076EF8EF0000E756F000E746F000E786F39
:101CF000000E776F89EF8EF0000E616F200E606F1F
:101D000070C562F571C563F59CEC8AF00501774BEF
:101D1000782B7451775D7851800A766F7551800AFF
:101D20007659D8A096EF8EF098EF8EF07CEF8EF07B
:101D3000EAB19DEF8EF09FEF8EF0A9EF8EF072C5A5
:101D400069F573C56AF570C56BF571C56CF526EC60
:101D500092F01200000E0501776F000E766F6CC5D1
:101D600066F56DC567F5050E686F0B0E83EC92F096
:101D7000710E0501666F050E676F050E686F0B0E1D
:101D8000EFEC92F0000E0501796F000E786F710E86
:101D90007825D96E050E7921DA6E78516C256F6F32
:101DA00079516D21706F6FC5F6F470C5F7F4000EB0
:101DB000F86EDE500900F518D8B4E1EF8EF0E3EFCD
:101DC0008EF0E5EF8EF076697769784B792B79BFE5
:101DD000F3EF8EF0795109E1050E785DD8A0F3EFAD
:101DE0008EF0F5EF8EF0C7EF8EF076C56AF577C509
:101DF0006BF51200BE6ABF6AC06AC16AC26AC36A72
:101E00000401026B0A6B126B1A6B226B2A6BFE0EBB
:101E1000C66EC7685B0EC86EC9680F0ECA6EF30E39
:101E2000CB6EFE0E006F0869030E106F1869070E67
:101E3000206FF30E286F016B096B116B196B216B0F
:101E4000296B03690B6913691B69070E236F2B69E3
:101E500004690C6914691C690F0E246F2C69020156
:101E6000896B886B876B866B140E6B6F320E166FE7
:101E7000130E6A6F310E146F0401056B066B076B4E
:101E80000D6B0E6B0F6B156B166B176B256B266B43
:101E9000276B12006DC56AF56EC56BF58BEC94F07F
:101EA0006CEF8FF06DC56AF56EC56BF58BEC94F039
:101EB0000501726F72C571F5300E7117D8B463EFFA
:101EC0008FF065EF8FF06CEF8FF06DC5D9F46EC5B4
:101ED000DAF4DF6A78EF8FF06DC5D9F46EC5DAF405
:101EE000DF50D8A476EF8FF078EF8FF052EF8FF0BD
:101EF000C0946DC564F56EC565F508EC94F0C09EA0
:101F0000E10E4AEC92F0C08EC09EA00E4AEC92F018
:101F10006FC562F570C563F5050120EE02F06D51E5
:101F2000D9266E51DA22DF50646F76EC91F0C08EC4
:101F3000C0841200FAC435F5FBC436F5A1AEA3EF98
:101F40008FF0A5EF8FF0AEEF8FF0B1AEAAEF8FF06C
:101F5000ACEF8FF0AEEF8FF056EC93F09EAEB3EF98
:101F60008FF0B5EF8FF0DCEF8FF0AEAEBAEF8FF001
:101F7000BCEF8FF0DCEF8FF0040117ADC2EF8FF0F4
:101F8000C4EF8FF0DCEF8FF0179D555056105710AF
:101F9000D8B4CDEF8FF0CFEF8FF0DCEF8FF002D819
:101FA000DCEF8FF00500FA6E5550FD6E5650FE6E58
:101FB0005750FF6EFA50120036C5FBF435C5FAF4DF
:101FC00011000501AE6FB70E05019D6FFE0E9E6FED
:101FD000AEC59FF5A06BAEBDF0EF8FF0F3EF8FF0C5
:101FE000010EF4EF8FF0000EA16FA26BAEBBFBEF02
:101FF0008FF0FEEF8FF0010EFFEF8FF0000EA36F5A
:10200000A46BAEB906EF90F009EF90F0010E0AEF65
:1020100090F0000EA56FA66BAEC5ADF5D890AD33B0
:10202000070EAD17AD51A76FA86BAEB11AEF90F0C8
:102030001DEF90F0010E1EEF90F0000EA96FAA6B3D
:10204000CCEC93F01200050120EE01F06D51D92681
:102050006E51DA226FC5DFF420EE02F06D51D92601
:102060006E51DA2270C5DFF46DC56AF56EC56BF589
:102070008BEC94F06FC562F5050E6EEC94F00501E3
:1020800020EE02F06D51D9266E51DA22DF50626FD8
:10209000110E6EEC94F0050120EE02F06D51D92680
:1020A0006E51DA22DF50626F120E6EEC94F06DC545
:1020B00064F56EC565F5F4EC93F06DC562F56EC51B
:1020C00063F5FAEC94F012000501646F8CEF90F068
:1020D000000E616F000E626F000E5FEC94F09CEFDB
:1020E00090F0000E616F000E626F140E5FEC94F0C2
:1020F0009CEF90F0140E616F000E626F000E5FECAB
:1021000094F09CEF90F0000E616F140E626F000E61
:102110005FEC94F09CEF90F005016451000AD8B494
:1021200068EF90F0010AD8B471EF90F0030AD8B4C8
:102130007AEF90F083EF90F01200020E05016C65CB
:10214000A4EF90F0A6EF90F0A8EF90F0D5EF90F00C
:102150006D0E666F050E676F010E686F060EEFEC71
:1021600092F0020E05016C19D8A4B9EF90F0BBEF04
:1021700090F0C8EF90F06D5120096D6F6D51F70B25
:102180006D6F6DC562F5060E6EEC94F0D5EF90F0B4
:102190006D51D70B6D6F6C39E842F80B6D116D6F97
:1021A0006DC562F5060E6EEC94F0120005016C6BC5
:1021B0006E0E666F050E676F010E686F000EEFEC16
:1021C00092F005016E510C0B6E6F6D0E666F050E71
:1021D000676F010E686F010EEFEC92F005016EB7AC
:1021E000F4EF90F0F6EF90F0FEEF90F06D51D8B470
:1021F000FCEF90F0FEEF90F00BEF91F06EA503EF87
:1022000091F005EF91F009EF91F0020E6C6F0BEF7A
:1022100091F0010E6C6F6C511200056E34EF91F06D
:10222000000E026E000E036E000EBCEC94F043EF45
:1022300091F0000E026E000E036E140EBCEC94F0D2
:1022400043EF91F0140E026E000E036E000EBCEC14
:1022500094F043EF91F0000E026E140E036E000E28
:10226000BCEC94F043EF91F00550000AD8B410EFA5
:1022700091F0010AD8B419EF91F0030AD8B422EF13
:1022800091F02BEF91F01200EE0E05019D6FFF0E05
:102290009E6FAFC59FF5B0C5A0F5CCEC93F065EF90
:1022A00091F0B30E666F050E676F010E686FB15146
:1022B000EFEC92F00501B12BD10E9D6FFF0E9E6FDA
:1022C000B3C59FF5A06BCCEC93F00501B207B22922
:1022D000D8A46DEF91F06FEF91F051EF91F0FA0EFD
:1022E0009D6FFE0E9E6FCCEC93F01200C09E050118
:1022F000656B99EF91F062C5F6F463C5F7F4000ED3
:10230000F86E250EF76403D00800F55005D0F6C42A
:10231000E9F4F7C4EAF4EF504AEC92F00501624B9D
:10232000632B000E616F0A0E606FA4EC91F0050143
:10233000652B6451655DD8A0A0EF91F0A2EF91F0FC
:102340007BEF91F0C08E1200AFEF91F0AA0EE82E55
:10235000FED700D0200E0501605F000E615B050115
:10236000615107E1200E605DD8B0B9EF91F0BBEF8D
:1023700091F0A6EF91F0C1EF91F0050EE82EFED797
:10238000000005016007D8A06107602906E1612906
:10239000D8A4CDEF91F0CFEF91F0BDEF91F0120006
:1023A00097C59BF598C59CF5E5EF91F095C586F529
:1023B00096C587F59B0E0501886F050E896F99C537
:1023C0008AF59AC58BF500EC80F09BC5F6F49CC5A8
:1023D000F7F4000EF86E0800F5500009D8A4F3EFEA
:1023E00091F0F5EF91F0D6EF91F0000E0501966FA8
:1023F000000E956F12006D0E0501666F050E676F7A
:10240000010E686F060EEFEC92F005016D51280B7E
:102410006D6F200E6D19D8A410EF92F012EF92F0AC
:1024200016EF92F0020E6C6F24EF92F0080E6D1909
:10243000D8A41DEF92F01FEF92F023EF92F0010E5F
:102440006C6F24EF92F06C6B6C511200000E050162
:102450006F6F000E6E6F39EF92F06DC560F5616BB6
:102460006BC562F56CC563F59CEC8AF005016E4B9B
:102470006F2B6E516925D96E6F516A21DA6EDF506C
:102480006D6F6D51D8A447EF92F049EF92F02DEFA8
:1024900092F01200D7AE4FEF92F0B6EF93F0050135
:1024A000606F0001878586510309866F836B010E7B
:1024B000826F60C581F0B1A060EF92F062EF92F0A0
:1024C0005BEF92F080C061F5050161511200C09E82
:1024D0000501656B78EF92F0FF0E4AEC92F062C551
:1024E000D9F463C5DAF4DF6E0501624B632B652B0B
:1024F0006451655DD8A07FEF92F081EF92F06CEFB0
:1025000092F0C08E12000501696F05016851D8B4C0
:102510008CEF92F08EEF92F09DEF92F0C09E695199
:102520001F0B20094AEC92F066C562F567C563F59A
:1025300068C564F576EC91F0C08E1200050167BFA6
:10254000A4EF92F0A6EF92F0ACEF92F066C566F5BC
:1025500067C567F5B8EF92F066C568F567C569F5B8
:10256000681F691F684B692B68C566F569C567F503
:102570001200C09E610E4AEC92F068C562F569C512
:1025800063F5050120EE02F06651D9266751DA2283
:10259000DF50646F67EC92F0C08E400E0501626FF1
:1025A000070E6EEC94F01200D69AAF90D6909F80F2
:1025B000B490D682000E0501606F000E616F000EB0
:1025C000626FECEC94F0B890D684000E0501606F59
:1025D000000E616F000E626FE5EC94F012000501D1
:1025E000696F05016851D8B4F8EF92F0FAEF92F0F4
:1025F00008EF93F0C09E69511F0B4AEC92F066C53C
:1026000062F567C563F568C564F567EC92F0C08E46
:10261000120014EF93F0150E0501626FC60EE82E3E
:10262000FED7622FFCD7000005016007D8A0610724
:10263000602906E16129D8A420EF93F022EF93F0FE
:102640000BEF93F01200C09E066A32EF93F0FF0E7C
:10265000B6EC93F003C5D9F404C5DAF4DF6E034A8F
:10266000042A062A0550065CD8A039EF93F03BEF08
:1026700093F027EF93F0C08E1200C09E610EB6EC6F
:1026800093F009C503F50AC504F520EE02F00750E2
:10269000D9260850DA22DF50056E23EC93F0C08E65
:1026A000400E036E070EB0EC94F01200B19E4F5036
:1026B00050105110D8B45FEF93F061EF93F06EEFCC
:1026C00093F002D86EEF93F00500FA6E4F50FD6E56
:1026D0005050FE6E5150FF6EFA50120012006D0EF7
:1026E0000501666F050E676F010E686F040EEFEC53
:1026F00092F005016D510F0B6D6F6C39F00B6D1180
:102700006D6F6DC562F5040E6EEC94F012000A6EEA
:102710000950D8B48EEF93F090EF93F09EEF93F0C2
:10272000C09E0A501F0BB6EC93F007C503F508C511
:1027300004F509C505F523EC93F0C08E1200000ED8
:10274000CBEC89F0050120EE01F06151D9266251F0
:10275000DA22630EDF6E20EE02F06151D92662515B
:10276000DA22200EDF6EC89EC8941200016E0001AE
:10277000878586510309866F836B010E826F01C5C1
:1027800081F0B1A0C6EF93F0C8EF93F0C1EF93F0E2
:1027900080C002F5025012009F0E0501AB6F050EBE
:1027A000AC6F000E956F000E966F9DC597F59EC598
:1027B00098F5AB0E996F050E9A6FD0EC91F0120060
:1027C0006DC56AF56EC56BF58BEC94F005016F6F06
:1027D0006FADEDEF93F0EFEF93F0F2EF93F0010EAA
:1027E000F3EF93F0000E120064C5D9F465C5DAF476
:1027F000DF6AC0942B0E0501626F000E6EEC94F040
:10280000C084300E0501626F070E6EEC94F012006A
:1028100064C5D9F465C5DAF4010EDF6E2A0E050130
:10282000626F000E6EEC94F0300E0501626F070EC1
:102830006EEC94F012000EC50BF50FC50CF5C7EC4D
:1028400094F0106E10AC27EF94F029EF94F02CEF79
:1028500094F0010E2DEF94F0000E12006C0E0501A5
:10286000666F050E676F010E686F060EEFEC92F053
:102870000501D8906C31030B6C6F6C5112007761BD
:10288000737375700000000000000000000000007D
:1028900000000000000000000000000000005041A7
:1028A0005F4D494E000050415F4C4F570000504172
:1028B0005F484947480050415F4D415800000501BD
:1028C000636F05016151C9EC81F005016351C9ECE9
:1028D00081F005016251C9EC81F012000501636FBE
:1028E000C09E050163511F0B20094AEC92F00501BF
:1028F00062514AEC92F0C08E12006C0E0501666FB8
:10290000050E676F010E686F040EEFEC92F0050183
:102910006C390F0B12006C0E0501666F050E676FA8
:10292000010E686F070EEFEC92F005016C5112007A
:10293000314D627073000000324D62707300000010
:102940003235304B62707300A194A192A1900001C6
:10295000846B040E856F866B896B8C6B8785120088
:10296000046EC09E04501F0B2009B6EC93F0035078
:10297000B6EC93F0C08E1200046E0250FCEC82F0B4
:102980000450FCEC82F00350FCEC82F012000D0EBF
:10299000076E050E086E010E096E070E87EC93F0A8
:1029A0000D501200600E0001AD6FAF6BB36B080EDF
:1029B000B16FB06BAC6B1200D2EC94F0FAEC8EF00D
:1029C000A4EC94F0D4EC92F0120060C55AF561C505
:1029D0005BF562C55CF5120060C55DF561C55EF52D
:1029E00062C55FF5120060C555F561C556F562C553
:1029F00057F51200C09EE20E4AEC92F0C08E120013
:042A000012001200AE
:020000040020DA
:10000000FFFFFFFFFFFFFFFFFFFFFFFFFFFFFFFF00
:10001000FFFFFFFFFFFFFFFFFFFFFFFFFFFFFFFFF0
:10002000FFFFFFFFFFFFFFFFFFFFFFFFFFFFFFFFE0
:10003000FFFFFFFFFFFFFFFFFFFFFFFFFFFFFFFFD0
:020000040030CA
:080000008FFFF7FF9FFFFFFFD8
:01000900FFF7
:00000001FF
